:100000007C007D007E00EE118CF59020800E0EBEEF
:100010000D027E0111801180118080EA208106117D
:1000200080118080052082DE8025ED75F00A841124
:100030008CF5A0E5F0118CF5B020800E0DBD3C02D2
:100040007D0011801180118080E02082DD80007CA5
:100050003C1180D2A71180C2A7DCF60DBD3C0A7D01
:10006000000EBE0D047E017D00ED75F00A84118C3A
:10007000F5A0E5F0118CF5B0EE118CF59002004F73
:100080007AC47BFF000000DBFBDAF722B4000374C4
:10009000C022B4010374F922B4020374A422B4038D
:1000A0000374B022B40403749922B4050374922239
:1000B000B40603748222B4070374F822B4080374EC
:1000C0008022B40903749022B40A03744022B40B52
:1000D00003747922B40C03742422B40D0274302208
:00000001FF
